{
  "_format": "hh-sol-artifact-1",
  "contractName": "WavePortal",
  "sourceName": "contracts/WavePortal.sol",
  "abi": [
    {
      "inputs": [],
      "stateMutability": "nonpayable",
      "type": "constructor"
    },
    {
      "inputs": [],
      "name": "getTotalWaves",
      "outputs": [
        {
          "internalType": "uint256",
          "name": "",
          "type": "uint256"
        }
      ],
      "stateMutability": "view",
      "type": "function"
    },
    {
      "inputs": [],
      "name": "wave",
      "outputs": [],
      "stateMutability": "nonpayable",
      "type": "function"
    }
  ],
  "bytecode": "0x608060405234801561001057600080fd5b506100596040518060400160405280600c81526020017f48656c6c6f20576f726c6421000000000000000000000000000000000000000081525061005e60201b6101091760201c565b6101e1565b6100fa81604051602401610072919061015f565b6040516020818303038152906040527f41304fac000000000000000000000000000000000000000000000000000000007bffffffffffffffffffffffffffffffffffffffffffffffffffffffff19166020820180517bffffffffffffffffffffffffffffffffffffffffffffffffffffffff83818316178352505050506100fd60201b60201c565b50565b60008151905060006a636f6e736f6c652e6c6f679050602083016000808483855afa5050505050565b600061013182610181565b61013b818561018c565b935061014b81856020860161019d565b610154816101d0565b840191505092915050565b600060208201905081810360008301526101798184610126565b905092915050565b600081519050919050565b600082825260208201905092915050565b60005b838110156101bb5780820151818401526020810190506101a0565b838111156101ca576000848401525b50505050565b6000601f19601f8301169050919050565b61055f806101f06000396000f3fe608060405234801561001057600080fd5b50600436106100365760003560e01c80636fe15b441461003b5780639a2cdc0814610045575b600080fd5b610043610063565b005b61004d6100be565b60405161005a91906103ed565b60405180910390f35b60016000808282546100759190610424565b925050819055506100bc6040518060400160405280601781526020017f48656c6c6f2025732c202573206861732077617665642100000000000000000081525033336101a2565b565b60006101016040518060400160405280601181526020017f25642070656f706c652077617665642121000000000000000000000000000000815250600054610241565b600054905090565b61019f8160405160240161011d919061035d565b6040516020818303038152906040527f41304fac000000000000000000000000000000000000000000000000000000007bffffffffffffffffffffffffffffffffffffffffffffffffffffffff19166020820180517bffffffffffffffffffffffffffffffffffffffffffffffffffffffff83818316178352505050506102dd565b50565b61023c8383836040516024016101ba9392919061037f565b6040516020818303038152906040527ffcec75e0000000000000000000000000000000000000000000000000000000007bffffffffffffffffffffffffffffffffffffffffffffffffffffffff19166020820180517bffffffffffffffffffffffffffffffffffffffffffffffffffffffff83818316178352505050506102dd565b505050565b6102d982826040516024016102579291906103bd565b6040516020818303038152906040527f9710a9d0000000000000000000000000000000000000000000000000000000007bffffffffffffffffffffffffffffffffffffffffffffffffffffffff19166020820180517bffffffffffffffffffffffffffffffffffffffffffffffffffffffff83818316178352505050506102dd565b5050565b60008151905060006a636f6e736f6c652e6c6f679050602083016000808483855afa5050505050565b61030f8161047a565b82525050565b600061032082610408565b61032a8185610413565b935061033a8185602086016104b6565b61034381610518565b840191505092915050565b610357816104ac565b82525050565b600060208201905081810360008301526103778184610315565b905092915050565b600060608201905081810360008301526103998186610315565b90506103a86020830185610306565b6103b56040830184610306565b949350505050565b600060408201905081810360008301526103d78185610315565b90506103e6602083018461034e565b9392505050565b6000602082019050610402600083018461034e565b92915050565b600081519050919050565b600082825260208201905092915050565b600061042f826104ac565b915061043a836104ac565b9250827fffffffffffffffffffffffffffffffffffffffffffffffffffffffffffffffff0382111561046f5761046e6104e9565b5b828201905092915050565b60006104858261048c565b9050919050565b600073ffffffffffffffffffffffffffffffffffffffff82169050919050565b6000819050919050565b60005b838110156104d45780820151818401526020810190506104b9565b838111156104e3576000848401525b50505050565b7f4e487b7100000000000000000000000000000000000000000000000000000000600052601160045260246000fd5b6000601f19601f830116905091905056fea26469706673582212207d3fe70eaa250d61033934538febf9e5d0af4bb0005cc3d7f6afc752ab64ed2c64736f6c63430008000033",
  "linkReferences": {},
  "deployedLinkReferences": {}
}